{
  "contractName": "Compound",
  "abi": [
    {
      "constant": true,
      "inputs": [],
      "name": "comptroller",
      "outputs": [
        {
          "name": "",
          "type": "address"
        }
      ],
      "payable": false,
      "stateMutability": "view",
      "type": "function"
    },
    {
      "inputs": [
        {
          "name": "_comptroller",
          "type": "address"
        }
      ],
      "payable": false,
      "stateMutability": "nonpayable",
      "type": "constructor"
    },
    {
      "constant": true,
      "inputs": [
        {
          "name": "cTokenAddress",
          "type": "address"
        }
      ],
      "name": "getcTokenBalance",
      "outputs": [
        {
          "name": "",
          "type": "uint256"
        }
      ],
      "payable": false,
      "stateMutability": "view",
      "type": "function"
    },
    {
      "constant": false,
      "inputs": [
        {
          "name": "cTokenAddress",
          "type": "address"
        }
      ],
      "name": "getBorrowBalance",
      "outputs": [
        {
          "name": "",
          "type": "uint256"
        }
      ],
      "payable": false,
      "stateMutability": "nonpayable",
      "type": "function"
    }
  ],
  "bytecode": "0x608060405234801561001057600080fd5b506040516020806103a68339810180604052602081101561003057600080fd5b8101908080519060200190929190505050806000806101000a81548173ffffffffffffffffffffffffffffffffffffffff021916908373ffffffffffffffffffffffffffffffffffffffff16021790555050610315806100916000396000f3fe608060405234801561001057600080fd5b50600436106100415760003560e01c80631031cb5f146100465780635fe3b5671461009e5780637d6af079146100e8575b600080fd5b6100886004803603602081101561005c57600080fd5b81019080803573ffffffffffffffffffffffffffffffffffffffff169060200190929190505050610140565b6040518082815260200191505060405180910390f35b6100a6610201565b604051808273ffffffffffffffffffffffffffffffffffffffff1673ffffffffffffffffffffffffffffffffffffffff16815260200191505060405180910390f35b61012a600480360360208110156100fe57600080fd5b81019080803573ffffffffffffffffffffffffffffffffffffffff169060200190929190505050610226565b6040518082815260200191505060405180910390f35b60008173ffffffffffffffffffffffffffffffffffffffff166370a08231306040518263ffffffff1660e01b8152600401808273ffffffffffffffffffffffffffffffffffffffff1673ffffffffffffffffffffffffffffffffffffffff16815260200191505060206040518083038186803b1580156101bf57600080fd5b505afa1580156101d3573d6000803e3d6000fd5b505050506040513d60208110156101e957600080fd5b81019080805190602001909291905050509050919050565b6000809054906101000a900473ffffffffffffffffffffffffffffffffffffffff1681565b60008173ffffffffffffffffffffffffffffffffffffffff166317bfdfbc306040518263ffffffff1660e01b8152600401808273ffffffffffffffffffffffffffffffffffffffff1673ffffffffffffffffffffffffffffffffffffffff168152602001915050602060405180830381600087803b1580156102a757600080fd5b505af11580156102bb573d6000803e3d6000fd5b505050506040513d60208110156102d157600080fd5b8101908080519060200190929190505050905091905056fea165627a7a72305820fcc83e4c0333735c7e9083f63952cbacdddc67d249d48403c372035eea04ca7e0029",
  "source": "pragma solidity ^0.5.7;\n\nimport '@openzeppelin/contracts/token/ERC20/IERC20.sol';\nimport './CTokenInterface.sol';\nimport './ComptrollerInterface.sol';\n\ncontract Compound {\n  ComptrollerInterface public comptroller;\n\n  constructor(\n    address _comptroller\n  ) public {\n    comptroller = ComptrollerInterface(_comptroller);\n  }\n\n  function supply(address cTokenAddress, uint underlyingAmount) internal {\n    CTokenInterface cToken = CTokenInterface(cTokenAddress);\n    address underlyingAddress = cToken.underlying(); \n    IERC20(underlyingAddress).approve(cTokenAddress, underlyingAmount);\n    uint result = cToken.mint(underlyingAmount);\n    require(\n      result == 0, \n      'cToken#mint() failed. see Compound ErrorReporter.sol for details'\n    );\n  }\n\n  function redeem(address cTokenAddress, uint cTokenAmount) internal {\n    CTokenInterface cToken = CTokenInterface(cTokenAddress);\n    uint result = cToken.redeem(cTokenAmount);\n    require(\n      result == 0,\n      'cToken#redeem() failed. see Compound ErrorReporter.sol for more details'\n    );\n  }\n\n  function enterMarket(address cTokenAddress) internal {\n    address[] memory markets = new address[](1);\n    markets[0] = cTokenAddress; \n    uint[] memory results = comptroller.enterMarkets(markets);\n    require(\n      results[0] == 0, \n      'comptroller#enterMarket() failed. see Compound ErrorReporter.sol for details'\n    ); \n  }\n\n  function borrow(address cTokenAddress, uint borrowAmount) internal {\n    CTokenInterface cToken = CTokenInterface(cTokenAddress);\n    uint result = cToken.borrow(borrowAmount);\n    require(\n      result == 0, \n      'cToken#borrow() failed. see Compound ErrorReporter.sol for details'\n    ); \n  }\n\n  function repayBorrow(address cTokenAddress, uint underlyingAmount) internal {\n    CTokenInterface cToken = CTokenInterface(cTokenAddress);\n    address underlyingAddress = cToken.underlying(); \n    IERC20(underlyingAddress).approve(cTokenAddress, underlyingAmount);\n    uint result = cToken.repayBorrow(underlyingAmount);\n    require(\n      result == 0, \n      'cToken#borrow() failed. see Compound ErrorReporter.sol for details'\n    ); \n  }\n\n  function claimComp() internal {\n    comptroller.claimComp(address(this));\n  }\n\n  function getCompAddress() internal view returns(address) {\n    return comptroller.getCompAddress();\n  }\n\n  function getcTokenBalance(address cTokenAddress) public view returns(uint){\n    return CTokenInterface(cTokenAddress).balanceOf(address(this));\n  }\n\n  //No view keyword because borrowBalanceCurrent() can be called in a tx, and Solidity complains if view\n  function getBorrowBalance(address cTokenAddress) public returns(uint){\n    return CTokenInterface(cTokenAddress).borrowBalanceCurrent(address(this));\n  }\n}",
  "sourcePath": "/Users/grahambazell/projects/defi-development-mastery/yield-farming-project/contracts/Compound.sol",
  "compiler": {
    "name": "solc",
    "version": "0.5.7+commit.6da8b019.Emscripten.clang"
  },
  "schemaVersion": "3.4.1",
  "updatedAt": "2021-07-07T20:33:34.493Z",
  "devdoc": {
    "methods": {}
  },
  "userdoc": {
    "methods": {}
  }
}